:100000004AC0000063C0000061C000005FC0000083
:100010005DC000005BC0000059C0000057C0000078
:1000200055C0000053C0000051C000004FC0000088
:100030004DC000004BC0000049C0000047C0000098
:1000400045C0000043C0000070C1000099C100001D
:100050003DC000003BC0000039C0000037C00000B8
:1000600035C0000033C00000084AD73B3BCE016ECC
:1000700084BCBFFDC12F3D6C74319ABD56833DDAFF
:100080003D00C77F11BED9E4BB4C3E916BAAAABE0E
:10009000000000803F0011241FBECFEFD8E0DEBF7C
:1000A000CDBF11E0A0E0B1E0E6E0FAE002C00590CB
:1000B0000D92A235B107D9F721E0A2E5B1E001C068
:1000C0001D92A03AB207E1F725D19BC499CF88E4ED
:1000D0008093B800089584E98093BC00ECEBF0E0D5
:1000E000808184FDFDCF089584EA8093BC00ECEB11
:1000F000F0E080818823ECF78091B900887F80311F
:10010000D1F08091B900887F883099F414C0808143
:100110008823ECF78091B900887F883141F0909175
:10012000B900987F81E0903471F480E0089580E018
:10013000089581E008956093BB0084E88093BC003B
:10014000ECEBF0E0E4CF0895CFCF08956093BB00CF
:1001500084E88093BC00ECEBF0E080818823ECF72E
:100160009091B900987F81E0983209F480E0089579
:1001700084EC8093BC00ECEBF0E080818823ECF70A
:100180008091BB00089584E88093BC00ECEBF0E024
:1001900080818823ECF78091BB00089584E591E08D
:1001A00096DF6CE384E591E09FDF60E084E591E019
:1001B000CDDF60E784E591E0C9DF84E591E08BDF86
:1001C0006CE384E591E090DF61E084E591E0BEDFDF
:1001D00060EA84E591E0BADF84E591E07CDF6CE3DE
:1001E00084E591E081DF62E084E591E0AFDF60E0EB
:1001F00084E591E0ABDF84E591E06DDF80E091E0A4
:100200003FC108956CE384E591E06EDF63E084E52F
:1002100091E09CDF84E591E05EDF6DE384E591E0B1
:1002200093DF8AE191E02CD184E591E0A1DF109287
:10023000590180935A0184E591E09ADF2091590198
:1002400030915A01282B30935A012093590188E2AA
:1002500091E016D184E591E08BDF109255018093F7
:10026000560184E591E084DF2091550130915601DB
:10027000282B309356012093550186E391E000D15D
:1002800084E591E075DF109257018093580184E571
:1002900091E079DF2091570130915801282B30935C
:1002A00058012093570184E491E0EAD084E591E07D
:1002B00012CF0895CF92DF92EF92FF926091590191
:1002C00070915A01072E000C880B990B47D26B01D5
:1002D0007C016091570170915801072E000C880B2A
:1002E000990B3CD2A70196014DD12CE930E345E6AC
:1002F00052E4ECD220E030E044E353E4D0D0FBD130
:100300007093530160935201CB01FF90EF90DF9007
:10031000CF900895789487E690E05CD03FDF72DF5D
:10032000C9DF86D08AE06FD0FACF1F920F920FB646
:100330000F9211242F938F939F93EF93FF938091AC
:10034000C0002091C6008871E0915D01EF5FEF7100
:1003500090915C01E91739F0E0935D01F0E0E05A1B
:10036000FE4F208301C082E080935B01FF91EF91FB
:100370009F918F912F910F900FBE0F901F90189506
:100380001F920F920FB60F9211248F939F93EF93AA
:10039000FF9390915F0180915E01981769F0E09161
:1003A0005E01EF5FEF71E0935E01F0E0E058FE4F19
:1003B00080818093C60005C0E1ECF0E080818F7DF4
:1003C0008083FF91EF919F918F910F900FBE0F90BF
:1003D0001F90189510925F0110925E0110925D01BE
:1003E00010925C01992324F422E02093C0009F77AF
:1003F0009093C5008093C40088E98093C10086E093
:100400008093C200089520915F012F5F2F7190911A
:100410005E012917E1F3E22FF0E0E058FE4F808300
:1004200020935F01E1ECF0E0808180628083089599
:100430000F931F93CF93DF93CDB7DEB72F970FB6F0
:10044000F894DEBF0FBECDBF4AE0BE016F5F7F4FA5
:10045000A5D28981882349F08E010E5F1F4FD3DF1B
:10046000F80181918F018111FACF2F960FB6F89480
:10047000DEBF0FBECDBFDF91CF911F910F910895C9
:10048000CF93DF93EC018881882329F02196BBDF8D
:1004900089918111FCCFDF91CF9108955058BB27EE
:1004A000AA270ED0D2C1C3D130F0C8D120F031F488
:1004B0009F3F11F41EF493C10EF4E095E7FB89C150
:1004C000E92FD4D180F3BA17620773078407950721
:1004D00018F071F49EF5ECC10EF4E0950B2EBA2FD6
:1004E000A02D0B01B90190010C01CA01A00111243A
:1004F000FF27591B99F0593F50F4503E68F11A16E6
:10050000F040A22F232F342F4427585FF3CF469576
:1005100037952795A795F0405395C9F77EF41F1698
:10052000BA0B620B730B840BBAF09150A1F0FF0F62
:10053000BB1F661F771F881FC2F70EC0BA0F621F4E
:10054000731F841F48F4879577956795B795F7953E
:100550009E3F08F0B3CF9395880F08F09927EE0FD0
:1005600097958795089563D158F080E891E009F454
:100570009EEF64D128F040E851E059F45EEF09C0E5
:100580002EC196C1E92FE07871D168F3092E052AB2
:10059000C1F3261737074807590738F00E2E07F81A
:1005A000E02569F0E025E0640AC0EF6307F80094F5
:1005B00007FADB01B9019D01DC01CA01AD01EF932E
:1005C00041D043D10AD05F91552331F02BED3FE06C
:1005D00049E450FD49EC63CF0895DF93DD27B92F3F
:1005E000BF7740E85FE31616170648075B0710F46D
:1005F000D92F65D19F938F937F936F93CAD1E8E6EC
:10060000F0E0F0D022D12F913F914F915F916AD1CC
:10061000DD2349F09058A2EA2AED3FE049EC5FE380
:10062000D0785D274DDFDF9110C108D140F0FFD0B9
:1006300030F021F45F3F19F0CCC051113AC1CFC066
:1006400015D198F39923C9F35523B1F3951B550B95
:10065000BB27AA2762177307840738F09F5F5F4F95
:10066000220F331F441FAA1FA9F333D00E2E3AF0D6
:10067000E0E830D091505040E695001CCAF729D0F0
:10068000FE2F27D0660F771F881FBB1F261737073F
:100690004807AB07B0E809F0BB0B802DBF01FF276F
:1006A00093585F4F2AF09E3F510568F092C001C1F8
:1006B0005F3FECF3983EDCF3869577956795B795A9
:1006C000F7959F5FC9F7880F911D9695879597F9C4
:1006D0000895E1E0660F771F881FBB1F621773073D
:1006E0008407BA0720F0621B730B840BBA0BEE1F52
:1006F00088F7E095089504D06894B111DAC00895A0
:10070000BDD088F09F5790F0B92F9927B751A0F02E
:10071000D1F0660F771F881F991F1AF0BA95C9F795
:1007200012C0B13081F0C4D0B1E00895C1C0672FCC
:10073000782F8827B85F39F0B93FCCF38695779545
:100740006795B395D9F73EF490958095709561952E
:100750007F4F8F4F9F4F0895E89409C097FB3EF459
:1007600090958095709561957F4F8F4F9F4F9923FE
:10077000A9F0F92F96E9BB279395F695879577957C
:100780006795B795F111F8CFFAF4BB0F11F460FF3C
:100790001BC06F5F7F4F8F4F9F4F16C0882311F094
:1007A00096E911C0772321F09EE8872F762F05C0A8
:1007B000662371F096E8862F70E060E02AF09A9543
:1007C000660F771F881FDAF7880F9695879597F938
:1007D000089597F99F6780E870E060E008959FEFC3
:1007E00080EC0895DF93CF931F930F93FF92EF92C6
:1007F000DF927B018C01689405C0DA2EEF0172D084
:10080000FE01E894A5912591359145915591AEF35E
:10081000EF0156DEFE019701A801DA9479F7DF9027
:10082000EF90FF900F911F91CF91DF9108950024D9
:100830000A941616170618060906089500240A9445
:1008400012161306140605060895092E0394000CCB
:1008500011F4882352F0BB0F40F4BF2B11F460FF5A
:1008600004C06F5F7F4F8F4F9F4F089557FD905883
:10087000440F551F59F05F3F71F04795880F97FB64
:10088000991F61F09F3F79F087950895121613061E
:100890001406551FF2CF4695F1DF08C0161617064D
:1008A0001806991FF1CF8695710561050894089582
:1008B000E894BB2766277727CB0197F908959B011A
:1008C000AC0160E070E080E89FE366C00BD0BDCF74
:1008D000AEDF28F0B3DF18F0952309F07ACF7FCF91
:1008E0001124E7CFC3DFA0F3959FD1F3950F50E01C
:1008F000551F629FF001729FBB27F00DB11D639FD2
:10090000AA27F00DB11DAA1F649F6627B00DA11D77
:10091000661F829F2227B00DA11D621F739FB00D1D
:10092000A11D621F839FA00D611D221F749F33278D
:10093000A00D611D231F849F600D211D822F762F26
:100940006A2F11249F5750408AF0E1F088234AF023
:10095000EE0FFF1FBB1F661F771F881F915050406F
:10096000A9F79E3F510570F034CFA3CF5F3FECF362
:10097000983EDCF3869577956795B795F795E7955B
:100980009F5FC1F7FE2B880F911D9695879597F96C
:1009900008959B01AC019ACF53DE57CFBB274A3055
:1009A00031F4992322F4BDE2909581959F4F01C0C7
:1009B000BB27FB015527AA27880F991FAA1FA41739
:1009C00010F0A41B83955051B9F7A05DAA3308F02D
:1009D000A95DA193009779F7B111B1931192CB0161
:1009E00000C0DC01FC01672F71917723E1F732979A
:1009F00004C07C916D9370836291AE17BF07C8F3FA
:060A00000895F894FFCFF9
:100A0600696E697469616C69736174696F6E20637C
:100A16006F6D706C657465640A00696E69746961EE
:100A26006C69736520310A00696E697469616C6965
:100A3600736520320A00696E697469616C69736551
:100A460020330A00696E697469616C6973652034C4
:020A56000A0094
:00000001FF
